{
  "_format": "hh-sol-artifact-1",
  "contractName": "BarterXmarketPlace",
  "contractAddress": "0xD807476C4B18E11008342D142c9176ac002cc730",
  "chainId": 11155111,
  "sourceName": "contracts/MarketPlace.sol",
  "abi": [
    {
      "inputs": [
        {
          "internalType": "address",
          "name": "_brtxToken",
          "type": "address"
        }
      ],
      "stateMutability": "nonpayable",
      "type": "constructor"
    },
    {
      "inputs": [],
      "name": "ProductCount",
      "outputs": [
        {
          "internalType": "uint256",
          "name": "",
          "type": "uint256"
        }
      ],
      "stateMutability": "view",
      "type": "function"
    },
    {
      "inputs": [
        {
          "internalType": "bytes32",
          "name": "name",
          "type": "bytes32"
        },
        {
          "internalType": "bytes",
          "name": "image",
          "type": "bytes"
        },
        {
          "internalType": "uint256",
          "name": "price",
          "type": "uint256"
        },
        {
          "internalType": "bytes",
          "name": "description",
          "type": "bytes"
        },
        {
          "internalType": "bytes32",
          "name": "productType",
          "type": "bytes32"
        },
        {
          "internalType": "bytes32",
          "name": "condition",
          "type": "bytes32"
        },
        {
          "internalType": "uint256",
          "name": "stock",
          "type": "uint256"
        }
      ],
      "name": "addProduct",
      "outputs": [
        {
          "internalType": "uint256",
          "name": "",
          "type": "uint256"
        }
      ],
      "stateMutability": "nonpayable",
      "type": "function"
    },
    {
      "inputs": [],
      "name": "brtx",
      "outputs": [
        {
          "internalType": "contract BRTX",
          "name": "",
          "type": "address"
        }
      ],
      "stateMutability": "view",
      "type": "function"
    },
    {
      "inputs": [
        {
          "internalType": "uint256",
          "name": "_id",
          "type": "uint256"
        }
      ],
      "name": "buyProduct",
      "outputs": [],
      "stateMutability": "nonpayable",
      "type": "function"
    },
    {
      "inputs": [
        {
          "internalType": "uint256",
          "name": "_id",
          "type": "uint256"
        }
      ],
      "name": "getProduct",
      "outputs": [
        {
          "internalType": "bytes32",
          "name": "name",
          "type": "bytes32"
        },
        {
          "internalType": "uint256",
          "name": "price",
          "type": "uint256"
        },
        {
          "internalType": "bytes",
          "name": "description",
          "type": "bytes"
        },
        {
          "internalType": "uint256",
          "name": "stock",
          "type": "uint256"
        },
        {
          "internalType": "bytes",
          "name": "image",
          "type": "bytes"
        },
        {
          "internalType": "bytes32",
          "name": "productType",
          "type": "bytes32"
        },
        {
          "internalType": "bytes32",
          "name": "condition",
          "type": "bytes32"
        },
        {
          "internalType": "address",
          "name": "seller",
          "type": "address"
        }
      ],
      "stateMutability": "view",
      "type": "function"
    },
    {
      "inputs": [
        {
          "internalType": "uint256",
          "name": "",
          "type": "uint256"
        }
      ],
      "name": "store",
      "outputs": [
        {
          "internalType": "bytes32",
          "name": "name",
          "type": "bytes32"
        },
        {
          "internalType": "uint256",
          "name": "price",
          "type": "uint256"
        },
        {
          "internalType": "bytes",
          "name": "description",
          "type": "bytes"
        },
        {
          "internalType": "uint256",
          "name": "stock",
          "type": "uint256"
        },
        {
          "internalType": "bytes",
          "name": "image",
          "type": "bytes"
        },
        {
          "internalType": "bytes32",
          "name": "productType",
          "type": "bytes32"
        },
        {
          "internalType": "bytes32",
          "name": "condition",
          "type": "bytes32"
        },
        {
          "internalType": "address",
          "name": "seller",
          "type": "address"
        }
      ],
      "stateMutability": "view",
      "type": "function"
    }
  ],
  "bytecode": "0x60a06040526001805534801561001457600080fd5b50604051611408380380611408833981810160405281019061003691906100d3565b8073ffffffffffffffffffffffffffffffffffffffff1660808173ffffffffffffffffffffffffffffffffffffffff168152505050610100565b600080fd5b600073ffffffffffffffffffffffffffffffffffffffff82169050919050565b60006100a082610075565b9050919050565b6100b081610095565b81146100bb57600080fd5b50565b6000815190506100cd816100a7565b92915050565b6000602082840312156100e9576100e8610070565b5b60006100f7848285016100be565b91505092915050565b6080516112df6101296000396000818161033f0152818161041e015261066c01526112df6000f3fe608060405234801561001057600080fd5b50600436106100625760003560e01c80634f67c624146100675780636057361d146100855780638642269e146100bc5780639421a749146100d8578063b38d347114610108578063b9db15b414610126575b600080fd5b61006f61015d565b60405161007c91906108c6565b60405180910390f35b61009f600480360381019061009a9190610921565b610163565b6040516100b3989796959493929190610a38565b60405180910390f35b6100d660048036038101906100d19190610921565b6102db565b005b6100f260048036038101906100ed9190610c25565b61053e565b6040516100ff91906108c6565b60405180910390f35b61011061066a565b60405161011d9190610d5e565b60405180910390f35b610140600480360381019061013b9190610921565b61068e565b604051610154989796959493929190610a38565b60405180910390f35b60015481565b600060205280600052604060002060009150905080600001549080600101549080600201805461019290610da8565b80601f01602080910402602001604051908101604052809291908181526020018280546101be90610da8565b801561020b5780601f106101e05761010080835404028352916020019161020b565b820191906000526020600020905b8154815290600101906020018083116101ee57829003601f168201915b50505050509080600301549080600401805461022690610da8565b80601f016020809104026020016040519081016040528092919081815260200182805461025290610da8565b801561029f5780601f106102745761010080835404028352916020019161029f565b820191906000526020600020905b81548152906001019060200180831161028257829003601f168201915b5050505050908060050154908060060154908060070160009054906101000a900473ffffffffffffffffffffffffffffffffffffffff16905088565b600080600083815260200190815260200160002090506000816003015411610338576040517f08c379a000000000000000000000000000000000000000000000000000000000815260040161032f90610e36565b60405180910390fd5b80600101547f000000000000000000000000000000000000000000000000000000000000000073ffffffffffffffffffffffffffffffffffffffff1663dd62ed3e33306040518363ffffffff1660e01b8152600401610398929190610e56565b602060405180830381865afa1580156103b5573d6000803e3d6000fd5b505050506040513d601f19601f820116820180604052508101906103d99190610e94565b101561041a576040517f08c379a000000000000000000000000000000000000000000000000000000000815260040161041190610f0d565b60405180910390fd5b60007f000000000000000000000000000000000000000000000000000000000000000073ffffffffffffffffffffffffffffffffffffffff166323b872dd338460070160009054906101000a900473ffffffffffffffffffffffffffffffffffffffff1685600101546040518463ffffffff1660e01b81526004016104a193929190610f2d565b6020604051808303816000875af11580156104c0573d6000803e3d6000fd5b505050506040513d601f19601f820116820180604052508101906104e49190610f9c565b905080610526576040517f08c379a000000000000000000000000000000000000000000000000000000000815260040161051d90611015565b60405180910390fd5b81600301600081546001900391905081905550505050565b60006040518061010001604052808981526020018781526020018681526020018381526020018881526020018581526020018481526020013373ffffffffffffffffffffffffffffffffffffffff168152506000806001548152602001908152602001600020600082015181600001556020820151816001015560408201518160020190816105cd91906111d7565b506060820151816003015560808201518160040190816105ed91906111d7565b5060a0820151816005015560c0820151816006015560e08201518160070160006101000a81548173ffffffffffffffffffffffffffffffffffffffff021916908373ffffffffffffffffffffffffffffffffffffffff16021790555090505060016000815480929190600101919050559050979650505050505050565b7f000000000000000000000000000000000000000000000000000000000000000081565b6000806060600060606000806000806000808b81526020019081526020016000206040518061010001604052908160008201548152602001600182015481526020016002820180546106df90610da8565b80601f016020809104026020016040519081016040528092919081815260200182805461070b90610da8565b80156107585780601f1061072d57610100808354040283529160200191610758565b820191906000526020600020905b81548152906001019060200180831161073b57829003601f168201915b505050505081526020016003820154815260200160048201805461077b90610da8565b80601f01602080910402602001604051908101604052809291908181526020018280546107a790610da8565b80156107f45780601f106107c9576101008083540402835291602001916107f4565b820191906000526020600020905b8154815290600101906020018083116107d757829003601f168201915b5050505050815260200160058201548152602001600682015481526020016007820160009054906101000a900473ffffffffffffffffffffffffffffffffffffffff1673ffffffffffffffffffffffffffffffffffffffff1673ffffffffffffffffffffffffffffffffffffffff16815250509050806000015181602001518260400151836060015184608001518560a001518660c001518760e001519850985098509850985098509850985050919395975091939597565b6000819050919050565b6108c0816108ad565b82525050565b60006020820190506108db60008301846108b7565b92915050565b6000604051905090565b600080fd5b600080fd5b6108fe816108ad565b811461090957600080fd5b50565b60008135905061091b816108f5565b92915050565b600060208284031215610937576109366108eb565b5b60006109458482850161090c565b91505092915050565b6000819050919050565b6109618161094e565b82525050565b600081519050919050565b600082825260208201905092915050565b60005b838110156109a1578082015181840152602081019050610986565b60008484015250505050565b6000601f19601f8301169050919050565b60006109c982610967565b6109d38185610972565b93506109e3818560208601610983565b6109ec816109ad565b840191505092915050565b600073ffffffffffffffffffffffffffffffffffffffff82169050919050565b6000610a22826109f7565b9050919050565b610a3281610a17565b82525050565b600061010082019050610a4e600083018b610958565b610a5b602083018a6108b7565b8181036040830152610a6d81896109be565b9050610a7c60608301886108b7565b8181036080830152610a8e81876109be565b9050610a9d60a0830186610958565b610aaa60c0830185610958565b610ab760e0830184610a29565b9998505050505050505050565b610acd8161094e565b8114610ad857600080fd5b50565b600081359050610aea81610ac4565b92915050565b600080fd5b600080fd5b7f4e487b7100000000000000000000000000000000000000000000000000000000600052604160045260246000fd5b610b32826109ad565b810181811067ffffffffffffffff82111715610b5157610b50610afa565b5b80604052505050565b6000610b646108e1565b9050610b708282610b29565b919050565b600067ffffffffffffffff821115610b9057610b8f610afa565b5b610b99826109ad565b9050602081019050919050565b82818337600083830152505050565b6000610bc8610bc384610b75565b610b5a565b905082815260208101848484011115610be457610be3610af5565b5b610bef848285610ba6565b509392505050565b600082601f830112610c0c57610c0b610af0565b5b8135610c1c848260208601610bb5565b91505092915050565b600080600080600080600060e0888a031215610c4457610c436108eb565b5b6000610c528a828b01610adb565b975050602088013567ffffffffffffffff811115610c7357610c726108f0565b5b610c7f8a828b01610bf7565b9650506040610c908a828b0161090c565b955050606088013567ffffffffffffffff811115610cb157610cb06108f0565b5b610cbd8a828b01610bf7565b9450506080610cce8a828b01610adb565b93505060a0610cdf8a828b01610adb565b92505060c0610cf08a828b0161090c565b91505092959891949750929550565b6000819050919050565b6000610d24610d1f610d1a846109f7565b610cff565b6109f7565b9050919050565b6000610d3682610d09565b9050919050565b6000610d4882610d2b565b9050919050565b610d5881610d3d565b82525050565b6000602082019050610d736000830184610d4f565b92915050565b7f4e487b7100000000000000000000000000000000000000000000000000000000600052602260045260246000fd5b60006002820490506001821680610dc057607f821691505b602082108103610dd357610dd2610d79565b5b50919050565b600082825260208201905092915050565b7f4f7574206f662073746f636b0000000000000000000000000000000000000000600082015250565b6000610e20600c83610dd9565b9150610e2b82610dea565b602082019050919050565b60006020820190508181036000830152610e4f81610e13565b9050919050565b6000604082019050610e6b6000830185610a29565b610e786020830184610a29565b9392505050565b600081519050610e8e816108f5565b92915050565b600060208284031215610eaa57610ea96108eb565b5b6000610eb884828501610e7f565b91505092915050565b7f416c6c6f77616e636520746f6f206c6f77000000000000000000000000000000600082015250565b6000610ef7601183610dd9565b9150610f0282610ec1565b602082019050919050565b60006020820190508181036000830152610f2681610eea565b9050919050565b6000606082019050610f426000830186610a29565b610f4f6020830185610a29565b610f5c60408301846108b7565b949350505050565b60008115159050919050565b610f7981610f64565b8114610f8457600080fd5b50565b600081519050610f9681610f70565b92915050565b600060208284031215610fb257610fb16108eb565b5b6000610fc084828501610f87565b91505092915050565b7f5472616e73666572206661696c65640000000000000000000000000000000000600082015250565b6000610fff600f83610dd9565b915061100a82610fc9565b602082019050919050565b6000602082019050818103600083015261102e81610ff2565b9050919050565b60008190508160005260206000209050919050565b60006020601f8301049050919050565b600082821b905092915050565b6000600883026110977fffffffffffffffffffffffffffffffffffffffffffffffffffffffffffffffff8261105a565b6110a1868361105a565b95508019841693508086168417925050509392505050565b60006110d46110cf6110ca846108ad565b610cff565b6108ad565b9050919050565b6000819050919050565b6110ee836110b9565b6111026110fa826110db565b848454611067565b825550505050565b600090565b61111761110a565b6111228184846110e5565b505050565b5b818110156111465761113b60008261110f565b600181019050611128565b5050565b601f82111561118b5761115c81611035565b6111658461104a565b81016020851015611174578190505b6111886111808561104a565b830182611127565b50505b505050565b600082821c905092915050565b60006111ae60001984600802611190565b1980831691505092915050565b60006111c7838361119d565b9150826002028217905092915050565b6111e082610967565b67ffffffffffffffff8111156111f9576111f8610afa565b5b6112038254610da8565b61120e82828561114a565b600060209050601f831160018114611241576000841561122f578287015190505b61123985826111bb565b8655506112a1565b601f19841661124f86611035565b60005b8281101561127757848901518255600182019150602085019450602081019050611252565b868310156112945784890151611290601f89168261119d565b8355505b6001600288020188555050505b50505050505056fea26469706673582212209a0cee287a3bfce1c45e1f6379c85f1b8cee1a1a9ba9a036fc18f2c6a2a58c6b64736f6c634300081c0033",
  "linkReferences": {},
  "deployedLinkReferences": {}
}