{
  "_format": "hh-sol-artifact-1",
  "contractName": "BarterXmarketPlace",
  "contractAddress": "0xc00E072038B1b6Be0f6d36D97535DA437dA6C4ad",
  "sourceName": "contracts/MarketPlace.sol",
  "abi": [
    {
      "inputs": [
        {
          "internalType": "address",
          "name": "_brtxToken",
          "type": "address"
        }
      ],
      "stateMutability": "nonpayable",
      "type": "constructor"
    },
    {
      "inputs": [],
      "name": "ProductCount",
      "outputs": [
        {
          "internalType": "uint256",
          "name": "",
          "type": "uint256"
        }
      ],
      "stateMutability": "view",
      "type": "function"
    },
    {
      "inputs": [
        {
          "internalType": "uint256",
          "name": "price",
          "type": "uint256"
        },
        {
          "internalType": "uint256",
          "name": "stock",
          "type": "uint256"
        },
        {
          "internalType": "bytes32",
          "name": "name",
          "type": "bytes32"
        },
        {
          "internalType": "bytes",
          "name": "image",
          "type": "bytes"
        },
        {
          "internalType": "bytes",
          "name": "description",
          "type": "bytes"
        },
        {
          "internalType": "bytes32",
          "name": "productType",
          "type": "bytes32"
        },
        {
          "internalType": "bytes32",
          "name": "condition",
          "type": "bytes32"
        }
      ],
      "name": "addProduct",
      "outputs": [
        {
          "internalType": "uint256",
          "name": "",
          "type": "uint256"
        }
      ],
      "stateMutability": "nonpayable",
      "type": "function"
    },
    {
      "inputs": [],
      "name": "brtx",
      "outputs": [
        {
          "internalType": "contract BRTX",
          "name": "",
          "type": "address"
        }
      ],
      "stateMutability": "view",
      "type": "function"
    },
    {
      "inputs": [
        {
          "internalType": "uint256",
          "name": "_id",
          "type": "uint256"
        }
      ],
      "name": "buyProduct",
      "outputs": [],
      "stateMutability": "nonpayable",
      "type": "function"
    },
    {
      "inputs": [
        {
          "internalType": "uint256",
          "name": "_id",
          "type": "uint256"
        }
      ],
      "name": "getProduct",
      "outputs": [
        {
          "internalType": "bytes32",
          "name": "name",
          "type": "bytes32"
        },
        {
          "internalType": "uint256",
          "name": "price",
          "type": "uint256"
        },
        {
          "internalType": "bytes",
          "name": "description",
          "type": "bytes"
        },
        {
          "internalType": "uint256",
          "name": "stock",
          "type": "uint256"
        },
        {
          "internalType": "bytes",
          "name": "image",
          "type": "bytes"
        },
        {
          "internalType": "bytes32",
          "name": "productType",
          "type": "bytes32"
        },
        {
          "internalType": "bytes32",
          "name": "condition",
          "type": "bytes32"
        },
        {
          "internalType": "address",
          "name": "seller",
          "type": "address"
        }
      ],
      "stateMutability": "view",
      "type": "function"
    },
    {
      "inputs": [
        {
          "internalType": "uint256",
          "name": "",
          "type": "uint256"
        }
      ],
      "name": "store",
      "outputs": [
        {
          "internalType": "uint256",
          "name": "price",
          "type": "uint256"
        },
        {
          "internalType": "uint256",
          "name": "stock",
          "type": "uint256"
        },
        {
          "internalType": "bytes32",
          "name": "name",
          "type": "bytes32"
        },
        {
          "internalType": "bytes",
          "name": "description",
          "type": "bytes"
        },
        {
          "internalType": "bytes",
          "name": "image",
          "type": "bytes"
        },
        {
          "internalType": "bytes32",
          "name": "productType",
          "type": "bytes32"
        },
        {
          "internalType": "bytes32",
          "name": "condition",
          "type": "bytes32"
        },
        {
          "internalType": "address",
          "name": "seller",
          "type": "address"
        }
      ],
      "stateMutability": "view",
      "type": "function"
    }
  ],
  "bytecode": "0x60a06040526001805534801561001457600080fd5b50604051611492380380611492833981810160405281019061003691906100d3565b8073ffffffffffffffffffffffffffffffffffffffff1660808173ffffffffffffffffffffffffffffffffffffffff168152505050610100565b600080fd5b600073ffffffffffffffffffffffffffffffffffffffff82169050919050565b60006100a082610075565b9050919050565b6100b081610095565b81146100bb57600080fd5b50565b6000815190506100cd816100a7565b92915050565b6000602082840312156100e9576100e8610070565b5b60006100f7848285016100be565b91505092915050565b6080516113696101296000396000818161033f0152818161041e015261054001526113696000f3fe608060405234801561001057600080fd5b50600436106100625760003560e01c80634f67c624146100675780636057361d146100855780638642269e146100bc578063b38d3471146100d8578063b9db15b4146100f6578063cc86bb481461012d575b600080fd5b61006f61015d565b60405161007c91906108c4565b60405180910390f35b61009f600480360381019061009a919061091f565b610163565b6040516100b3989796959493929190610a36565b60405180910390f35b6100d660048036038101906100d1919061091f565b6102db565b005b6100e061053e565b6040516100ed9190610b21565b60405180910390f35b610110600480360381019061010b919061091f565b610562565b604051610124989796959493929190610b3c565b60405180910390f35b61014760048036038101906101429190610d29565b610781565b60405161015491906108c4565b60405180910390f35b60015481565b600060205280600052604060002060009150905080600001549080600101549080600201549080600301805461019890610e32565b80601f01602080910402602001604051908101604052809291908181526020018280546101c490610e32565b80156102115780601f106101e657610100808354040283529160200191610211565b820191906000526020600020905b8154815290600101906020018083116101f457829003601f168201915b50505050509080600401805461022690610e32565b80601f016020809104026020016040519081016040528092919081815260200182805461025290610e32565b801561029f5780601f106102745761010080835404028352916020019161029f565b820191906000526020600020905b81548152906001019060200180831161028257829003601f168201915b5050505050908060050154908060060154908060070160009054906101000a900473ffffffffffffffffffffffffffffffffffffffff16905088565b600080600083815260200190815260200160002090506000816001015411610338576040517f08c379a000000000000000000000000000000000000000000000000000000000815260040161032f90610ec0565b60405180910390fd5b80600001547f000000000000000000000000000000000000000000000000000000000000000073ffffffffffffffffffffffffffffffffffffffff1663dd62ed3e33306040518363ffffffff1660e01b8152600401610398929190610ee0565b602060405180830381865afa1580156103b5573d6000803e3d6000fd5b505050506040513d601f19601f820116820180604052508101906103d99190610f1e565b101561041a576040517f08c379a000000000000000000000000000000000000000000000000000000000815260040161041190610f97565b60405180910390fd5b60007f000000000000000000000000000000000000000000000000000000000000000073ffffffffffffffffffffffffffffffffffffffff166323b872dd338460070160009054906101000a900473ffffffffffffffffffffffffffffffffffffffff1685600001546040518463ffffffff1660e01b81526004016104a193929190610fb7565b6020604051808303816000875af11580156104c0573d6000803e3d6000fd5b505050506040513d601f19601f820116820180604052508101906104e49190611026565b905080610526576040517f08c379a000000000000000000000000000000000000000000000000000000000815260040161051d9061109f565b60405180910390fd5b81600101600081546001900391905081905550505050565b7f000000000000000000000000000000000000000000000000000000000000000081565b6000806060600060606000806000806000808b8152602001908152602001600020604051806101000160405290816000820154815260200160018201548152602001600282015481526020016003820180546105bd90610e32565b80601f01602080910402602001604051908101604052809291908181526020018280546105e990610e32565b80156106365780601f1061060b57610100808354040283529160200191610636565b820191906000526020600020905b81548152906001019060200180831161061957829003601f168201915b5050505050815260200160048201805461064f90610e32565b80601f016020809104026020016040519081016040528092919081815260200182805461067b90610e32565b80156106c85780601f1061069d576101008083540402835291602001916106c8565b820191906000526020600020905b8154815290600101906020018083116106ab57829003601f168201915b5050505050815260200160058201548152602001600682015481526020016007820160009054906101000a900473ffffffffffffffffffffffffffffffffffffffff1673ffffffffffffffffffffffffffffffffffffffff1673ffffffffffffffffffffffffffffffffffffffff16815250509050806040015181600001518260600151836020015184608001518560a001518660c001518760e001519850985098509850985098509850985050919395975091939597565b60006040518061010001604052808981526020018881526020018781526020018581526020018681526020018481526020018381526020013373ffffffffffffffffffffffffffffffffffffffff168152506000806001548152602001908152602001600020600082015181600001556020820151816001015560408201518160020155606082015181600301908161081a9190611261565b5060808201518160040190816108309190611261565b5060a0820151816005015560c0820151816006015560e08201518160070160006101000a81548173ffffffffffffffffffffffffffffffffffffffff021916908373ffffffffffffffffffffffffffffffffffffffff1602179055509050506001600081546001019190508190559050979650505050505050565b6000819050919050565b6108be816108ab565b82525050565b60006020820190506108d960008301846108b5565b92915050565b6000604051905090565b600080fd5b600080fd5b6108fc816108ab565b811461090757600080fd5b50565b600081359050610919816108f3565b92915050565b600060208284031215610935576109346108e9565b5b60006109438482850161090a565b91505092915050565b6000819050919050565b61095f8161094c565b82525050565b600081519050919050565b600082825260208201905092915050565b60005b8381101561099f578082015181840152602081019050610984565b60008484015250505050565b6000601f19601f8301169050919050565b60006109c782610965565b6109d18185610970565b93506109e1818560208601610981565b6109ea816109ab565b840191505092915050565b600073ffffffffffffffffffffffffffffffffffffffff82169050919050565b6000610a20826109f5565b9050919050565b610a3081610a15565b82525050565b600061010082019050610a4c600083018b6108b5565b610a59602083018a6108b5565b610a666040830189610956565b8181036060830152610a7881886109bc565b90508181036080830152610a8c81876109bc565b9050610a9b60a0830186610956565b610aa860c0830185610956565b610ab560e0830184610a27565b9998505050505050505050565b6000819050919050565b6000610ae7610ae2610add846109f5565b610ac2565b6109f5565b9050919050565b6000610af982610acc565b9050919050565b6000610b0b82610aee565b9050919050565b610b1b81610b00565b82525050565b6000602082019050610b366000830184610b12565b92915050565b600061010082019050610b52600083018b610956565b610b5f602083018a6108b5565b8181036040830152610b7181896109bc565b9050610b8060608301886108b5565b8181036080830152610b9281876109bc565b9050610ba160a0830186610956565b610bae60c0830185610956565b610bbb60e0830184610a27565b9998505050505050505050565b610bd18161094c565b8114610bdc57600080fd5b50565b600081359050610bee81610bc8565b92915050565b600080fd5b600080fd5b7f4e487b7100000000000000000000000000000000000000000000000000000000600052604160045260246000fd5b610c36826109ab565b810181811067ffffffffffffffff82111715610c5557610c54610bfe565b5b80604052505050565b6000610c686108df565b9050610c748282610c2d565b919050565b600067ffffffffffffffff821115610c9457610c93610bfe565b5b610c9d826109ab565b9050602081019050919050565b82818337600083830152505050565b6000610ccc610cc784610c79565b610c5e565b905082815260208101848484011115610ce857610ce7610bf9565b5b610cf3848285610caa565b509392505050565b600082601f830112610d1057610d0f610bf4565b5b8135610d20848260208601610cb9565b91505092915050565b600080600080600080600060e0888a031215610d4857610d476108e9565b5b6000610d568a828b0161090a565b9750506020610d678a828b0161090a565b9650506040610d788a828b01610bdf565b955050606088013567ffffffffffffffff811115610d9957610d986108ee565b5b610da58a828b01610cfb565b945050608088013567ffffffffffffffff811115610dc657610dc56108ee565b5b610dd28a828b01610cfb565b93505060a0610de38a828b01610bdf565b92505060c0610df48a828b01610bdf565b91505092959891949750929550565b7f4e487b7100000000000000000000000000000000000000000000000000000000600052602260045260246000fd5b60006002820490506001821680610e4a57607f821691505b602082108103610e5d57610e5c610e03565b5b50919050565b600082825260208201905092915050565b7f4f7574206f662073746f636b0000000000000000000000000000000000000000600082015250565b6000610eaa600c83610e63565b9150610eb582610e74565b602082019050919050565b60006020820190508181036000830152610ed981610e9d565b9050919050565b6000604082019050610ef56000830185610a27565b610f026020830184610a27565b9392505050565b600081519050610f18816108f3565b92915050565b600060208284031215610f3457610f336108e9565b5b6000610f4284828501610f09565b91505092915050565b7f416c6c6f77616e636520746f6f206c6f77000000000000000000000000000000600082015250565b6000610f81601183610e63565b9150610f8c82610f4b565b602082019050919050565b60006020820190508181036000830152610fb081610f74565b9050919050565b6000606082019050610fcc6000830186610a27565b610fd96020830185610a27565b610fe660408301846108b5565b949350505050565b60008115159050919050565b61100381610fee565b811461100e57600080fd5b50565b60008151905061102081610ffa565b92915050565b60006020828403121561103c5761103b6108e9565b5b600061104a84828501611011565b91505092915050565b7f5472616e73666572206661696c65640000000000000000000000000000000000600082015250565b6000611089600f83610e63565b915061109482611053565b602082019050919050565b600060208201905081810360008301526110b88161107c565b9050919050565b60008190508160005260206000209050919050565b60006020601f8301049050919050565b600082821b905092915050565b6000600883026111217fffffffffffffffffffffffffffffffffffffffffffffffffffffffffffffffff826110e4565b61112b86836110e4565b95508019841693508086168417925050509392505050565b600061115e611159611154846108ab565b610ac2565b6108ab565b9050919050565b6000819050919050565b61117883611143565b61118c61118482611165565b8484546110f1565b825550505050565b600090565b6111a1611194565b6111ac81848461116f565b505050565b5b818110156111d0576111c5600082611199565b6001810190506111b2565b5050565b601f821115611215576111e6816110bf565b6111ef846110d4565b810160208510156111fe578190505b61121261120a856110d4565b8301826111b1565b50505b505050565b600082821c905092915050565b60006112386000198460080261121a565b1980831691505092915050565b60006112518383611227565b9150826002028217905092915050565b61126a82610965565b67ffffffffffffffff81111561128357611282610bfe565b5b61128d8254610e32565b6112988282856111d4565b600060209050601f8311600181146112cb57600084156112b9578287015190505b6112c38582611245565b86555061132b565b601f1984166112d9866110bf565b60005b82811015611301578489015182556001820191506020850194506020810190506112dc565b8683101561131e578489015161131a601f891682611227565b8355505b6001600288020188555050505b50505050505056fea26469706673582212207ac9ac281eca9101045454e521c1922ca1255c436244947e490ef58c62d714d764736f6c634300081c0033",
  "linkReferences": {},
  "deployedLinkReferences": {}
}